:1000000018308A0000280000412A0D050000412A0E
:1000100045180D050001412AAB21D7264F22C51EE8
:10002000B1060A00412AAB21572541283D11A539C7
:100030002216A21273110D050000412AAB21492896
:10004000CD2AD81EB0060A00C72254102F33693CAF
:100050002F36E13974177034F01F7538E430F432FC
:10006000263BB11EA534263BB21EA534263BB31E4B
:10007000A534263BB41E251835367510482A542859
:10008000AF18AE180D05C837733A3A10B11C3217C5
:10009000311B3817B1193717B1068A060A00412AF1
:1000A000AB214928532A4129D41E222A432822164B
:1000B000A21273112C1CB0060A00412AAB21492858
:1000C000D3224E22BD12E9060A00412AAB2149285B
:1000D0004326CF29C5060A00C420D422BA297500B8
:1000E000C420D422BA266F00C420D4223A2A750034
:1000F000C420D422BA2B6500C420D4223A2A680036
:10010000C420D4223A237200C420D422BA29610028
:1001100020100001200020002000200020002000EE
:100120002000200020002000200020003E003E0093
:100130003E003E003E003E003E003E003E003E00CF
:100140003E003E00D4205900C12AD4270001432696
:10015000CF214B00D12A412A0001C4224E00C227E0
:100160004D005024552700014F2700014F27000163
:100170004F2700014F2700014F2346004F23460021
:100180004F2346004F234600C13AF4370001D23ACC
:100190006E3769376700CD27C4223A274F274500BD
:1001A000CD27C422BA264127D5204C00CD27C42212
:1001B000BA20552A4F00D4326D38A01EA012750007
:1001C000C83AED3464103D10A53A000157103D10B7
:1001D000A53A00014C103D10251835367500D33A6C
:1001E0000001CD370001D43A0001D7320001543468
:1001F000000146390001D330000120102000D33A1D
:100200000001CD370001D43A0001D7320001543447
:10021000000146390001D33000016A3084008317A1
:100220000008031920290630F800F701F70B1629FA
:10023000F80B15297B30F700F70B1C29800B1329CD
:10024000080094138C118316630883129300023004
:10025000941B3129831614192B290030111B0130EE
:100260008312F8000800831611141118352983121F
:1002700022088316E300831221218316610883126A
:1002800023048316E200E300831221218316111553
:1002900011194829831208000030211801308316F3
:1002A000DF045F08E1008312332183165F080438FE
:1002B000E000E100831233215D295E2900008316EE
:1002C0005F08FB39E000E100831233215330F7006F
:1002D000F70B68290800211083165908F039DA0055
:1002E000DF0083124C218316590EF700F030F7051A
:1002F0007708F039DA00DF0083124C2108008316FA
:1003000053088312A2008316E1018312332128309F
:100310000317EA0003130D2103308316D90083125B
:100320006B2105300317EA0003130D2103308316F8
:10033000D90083126B2105300317EA0003130D2146
:1003400003308316D90083126B2105300317EA00AE
:1003500003130D2102308316D90083126B2105305F
:100360000317EA0003130D2128308316D9008312E6
:100370006B2132300317EA0003130D210C30831672
:10038000D90083126B2132300317EA0003130D21C9
:1003900001308316D90083126B2132300317EA0033
:1003A00003130D2106308316D90083126B213230DE
:1003B0000317EA0003130D218A150A161F29941347
:1003C0008C1183165C08831293000230941BEF2972
:1003D00083161419E9290030111B01308312F8002B
:1003E0000800831611141118F3294630DC0083121B
:1003F000DF2183165808DC008312DF2183161115D4
:100400001119002A8312080064300317EA0003134D
:100410000D218316D8018312F1218A150A16242989
:100420000B080317EA0003138B13831603178C17AB
:100430000C14000000008312EA1F212A03138B17FB
:1004400003170C087F390319602AEA000D08EB0036
:100450000F08EC006A0803130C1E2C2A99000317DE
:100460006B088D006C088F0003130B080317ED0059
:1004700003138B13831603178C170C140000000052
:100480008312ED1F462A03138B1703170C0D0E0D55
:100490007F390319602AEA000D08EB000F08EC0011
:1004A0006A0803130C1E522A990003176B088D006B
:1004B0006C088F008D0A03198F0A0313102A031783
:1004C000031308000B080317EB0003138B138316A9
:1004D00003178C170C14000000008312EB1F732A03
:1004E00003138B17031703189B2A0C087F39EB00A3
:1004F0000D08EC000F08ED006B0803130C1E7E2A9C
:10050000990003176C088D006D088F0003130B080A
:100510000317EE0003138B13831603178C170C14A9
:10052000000000008312EE1F982A03138B17031795
:10053000EA0B9B2AB62A0C0D0E0D7F39EB000D0835
:10054000EC000F08ED006B0803130C1EA52A9900A0
:1005500003176C088D006D088F008D0A03198F0A30
:100560000310EA0BB42AB62A0313622A0313080005
:1005700080080319D52A0317EB010408EA006B1061
:10058000831B6B14000803130C1EC42A9900031765
:100590006A08840083136B188317840A031DD32A07
:1005A0000313850A03170313B82A0800043003173E
:1005B0008D0000308F000313102202308316D30009
:1005C000FA3083120317EA0003130D218316D30BAD
:1005D000E02A0730831203178D0000308F000313C9
:1005E000102202308316D300FA3083120317EA0078
:1005F00003130D218316D30BF42A0B308312031738
:100600008D0000308F000313102202308316D300B8
:10061000FA3083120317EA0003130D218316D30B5C
:10062000082B1230831203178D0000308F00031047
:100630000A30EA0003136222350884008313361857
:100640008317B82222300C1E232B99002C300C1E4D
:10065000272B990022300C1E2B2B99003B0884007D
:1006600083133C188317B82222300C1E352B9900B7
:100670000D300C1E392B99000A300C1E3D2B9900B1
:1006800008308316D300FA3083120317EA000313ED
:100690000D218316D30B432B1D30831203178D00BE
:1006A00000308F000313102202308316D300FA307B
:1006B00083120317EA0003130D218316D30B572B64
:1006C00083128A150A162E29570884008313581896
:1006D00083178316031717088000840A800183128A
:1006E0000313D70A0319D80A08000B080317EB00F5
:1006F00003138B13831603178C170C1400000000D0
:100700008312EB1F862B03138B1703170318AF2BD2
:100710000C087F39EB000D08EC000F08ED006B08AA
:100720008316970083120313642303176C088D004C
:100730006D088F0003130B080317EE0003138B13D0
:10074000831603178C170C14000000008312EE1F91
:10075000AC2B03138B170317EA0BAF2BCB2B0C0D12
:100760000E0D7F39EB000D08EC000F08ED006B0853
:100770008316970083120313642303176C088D00FC
:100780006D088F008D0A03198F0A0310EA0BC92B1D
:10079000CB2B0313752B03130800831603171108C3
:1007A000F80110020318D72B1008F700E32BF7010C
:1007B00008309200900DF70D110877020318F7002A
:1007C000F80D920BDA2B8312031308002030031765
:1007D0006B1E3030EC006A08F700EA1FF72BF709B0
:1007E000F70A7708EA002D30EC00EB176B146A0863
:1007F000831690006430910083120313CD23770891
:100800000317EA0030307807ED006A08831690007D
:100810000A30910083120313CD233030770703177A
:10082000EF0030307807EE006C08F70030306D02D2
:1008300003191E2CEB14EB1B6B15322C6C08ED000E
:100840002030EC0030306E0203192A2C6B14EB1BA5
:10085000EB14322C031D6B14031D322C6D08EE00BB
:100860002030ED006B19392CEB18402C6B18472CFD
:100870004E2C6C088316970083120313642303170E
:100880006D088316970083120313642303176E0801
:100890008316970083120313642303176F088316CC
:1008A000970083120313642308000130D80010302E
:1008B000D700243003178D0000308F0003101C3048
:1008C000EA00031375232B080317EA001830EB0026
:1008D0000313E623333003178D0000308F0003101D
:1008E0000430EA00031375232D080317EA001830BB
:1008F000EB000313E623363003178D0000308F0022
:1009000003100430EA000313752332080317EA00CA
:100910001830EB000313E623393003178D00003045
:100920008F0003100430EA0003137523083084009D
:1009300034080317EB00031333080317EA00831688
:100940009601040895001610831B161483126B0E73
:10095000F038831691009107E23E9200323E9400F7
:1009600083126B080F398316920792079407E93EAA
:1009700093009307930783126A0E0F398316930728
:100980009407930D940D9409940D83126A080F39FE
:1009900083169407910D073090000A309407930353
:1009A000031CCE2C93079203031CD22C92079103B5
:1009B000031CD62C91079003031CDA2C9030840082
:1009C00083170730150515138407943004020319A3
:1009D00015170008F700031DF52C151BF52C151A2B
:1009E0000D2D9519F52C2030F82C95151512303059
:1009F000F7078312EB010408EA006B10831B6B14EA
:100A000077088316970083120313642303176A0879
:100A1000840083136B1883178316840A151FE52C33
:100A20003D3083128D0000308F0003142230EA0025
:100A3000031375234F3003178D0000308F00031010
:100A40001330EA0003136222470884008313481816
:100A50008317B822593003178D0000308F0003141C
:100A60000630EA000313622296300317EA000313EC
:100A70000D2101300317EB001030EA006B08ED0088
:100A80006A08EC006D08FA006C08840083137A1879
:100A9000831780080319502DEC0A0319ED0A422D23
:100AA0006A086C02F7006D08FA006B08031C6B0FF4
:100AB000FA027708F800780883160313D3005D3034
:100AC000831203178D0000308F0003100B30EA00F3
:100AD000031362228316530883120317EA001830A7
:100AE000EB0020306B1E3030EC006A08F700EA1F84
:100AF000812DF709F70A7708EA002D30EC00EB1793
:100B00006B146A08831690006430910083120313FB
:100B1000CD2377080317EA0030307807ED006A0824
:100B2000831690000A30910083120313CD233030D6
:100B300077070317EF0030307807EE006C08F700F6
:100B400030306D020319A82DEB14EB1B6B15BC2D77
:100B50006C08ED002030EC0030306E020319B42D2B
:100B60006B14EB1BEB14BC2D031D6B14031DBC2D70
:100B70006D08EE002030ED006B19C32DEB18C92D68
:100B80006B18CF2DD52D6C0803130C1EC52D9900A5
:100B900003176D0803130C1ECB2D990003176E0865
:100BA00003130C1ED12D990003176F0803130C1E9D
:100BB000D72D99000D300C1EDB2D99000A300C1E2C
:100BC000DF2D990096300317EA0003130D21103032
:100BD00084008317B82296300317EA0003130D210F
:100BE000653003178D0000308F00031310229630FC
:100BF0000317EA0003130D218A150A163329201062
:100C0000200883168700831220102008831687008F
:100C10008312071019300317EA0003130D21201067
:100C2000200883168700831207143130F700F70B72
:100C3000172E1A2E201420088316870083128A1577
:100C40000A1639294230F700F70B242E0000201431
:100C5000200883168700831207183F2E8530F7007F
:100C6000F70B302E20142008831687008312071CF0
:100C70003F2E5330F700F70B3B2E0130F8008A155A
:100C80000A163E298316D5018312A11C472E83160E
:100C9000D3015308073C031CAE2ED4018312201449
:100CA00020088316870083120718652E8316D40A3E
:100CB0005408FA3C0318602E8312A114652E831683
:100CC000612E622E00004E2E83123130F700F70B9A
:100CD000672E6A2E201420088316870083120718B7
:100CE000842E83165308073CD6000130F7005608BF
:100CF000F80003197F2E0310F70DF80B7B2E7708F1
:100D0000FF3AD505AA2E831283165308073CD60056
:100D10000130F7005608F8000319922E0310F70D62
:100D2000F80B8E2E7708D504831220142008831622
:100D300087008312071CAB2E8316D40A5408FA3C92
:100D40000318A62E8312A114AB2E8316A72EA82E4D
:100D50000000942E83128316D30A492E5508F800FA
:100D6000831208008E30F70083165408F8005308E9
:100D7000F900FA01F808031DC72E7908F800F901F7
:100D80000830F702F808031DC72EF701CF2E031015
:100D9000F81BCE2EF90DF80DF703C72EF8138312AA
:100DA0008A150A167E29831653080319442FDB007F
:100DB00057080319442FDB070318E52E7F30DB02A9
:100DC000031C442F0319442FE92E8130DB0703183D
:100DD000442F5B08F700F801F901FA015408DF001D
:100DE000DF175508DE005608DD001830DB00DC0197
:100DF0005D1C122F5A08FA07031C042FF90A031D61
:100E0000042FF80A0319DC175908F907031C0B2FE4
:100E1000F80A0319DC175808D500D5175508F80744
:100E20000318DC17DC0DF80CF90CFA0CDF0CDE0CE7
:100E3000DD0C0310DB0BF72E0130F7070318442FEE
:100E4000F81B292FDF0DFA0DF90DF80DF703031923
:100E5000442FDF1F3A2FFA0A031D3A2FF90A031D08
:100E60003A2FF80A031D3A2FF80CF90CFA0CF70A7E
:100E70000319442F5408DC005808DC06DC1F422FFD
:100E8000F817482FF813482FF701F801F901FA0174
:100E900083128A150A1693298E30F7008316530899
:100EA000F7025408F9005508F800F917F708031974
:100EB000642F0310F908031D602FF8080319642F2D
:100EC000F90CF80CF70B592FD41F6B2FF809F909FF
:100ED000F80A0319F90A83128A150A16D22914137B
:100EE000831691159119722F77189112771C91160C
:100EF0001116111A792F83121308F80008008316AF
:100F0000D701D6010130D8008312F121831653088E
:100F1000D8008312F1218316D901D801DA01DB014F
:100F200011141118912F4730DC008312DF2101309A
:100F3000F7006F2778088316DB00F70183126F270D
:100F400078088316DA0011151119A42F5B08D9004F
:100F50005A08D8005808F8005908F9007908D7004D
:100F60007808D6005508D800D80AD8030319C02F2E
:100F7000FF3083120317EA0003130D218316B52FE8
:100F8000540883120317EA0003130D218316D801B6
:100F90008312F12183165608F8005708F9008312CE
:100FA0008A150A16E0290C308316D60056080C3A2A
:100FB0008312031DE52F01308316D90083126B21A4
:100FC00002300317EA0003130D21080021148316D1
:100FD0005D08F039DE00DF0083124C2183165D0EC0
:100FE000F700F030F7057708F039DE00DF008312F4
:040FF0004C21080088
:10100000831657080319C728E3005B080319C7288C
:10101000E30203180C2811287F30E3070318C728C0
:1010200017288130E302031CC7280319C728630867
:10103000F700F801F901FA01E2015808E100E117AF
:101040005908E0005A08DF001930E3005E08DF02AB
:1010500003183A280130E00203183A28E102031885
:101060003A28E20203183A28E20AE10AE00A5E0896
:10107000DF076C285D08E002031855280130E10203
:1010800003185528E20203185528E20AE10A5D0810
:10109000E0075E08DF07031C6C28E00A031D6C28CC
:1010A000E10A031D6C28E20A6C285C088038E10222
:1010B00003186B280130E20203186B28E20A5C086F
:1010C0008038E1075D08E007031C4928E10A031D99
:1010D0004928E20A49287A14E30B6F287A2803107A
:1010E000DF0DE00DE10DE20D0310FA0DF90DF80D25
:1010F000E40D2628641C82280310F80CF90CFA0C65
:10110000E40C8528F7030319C728E41BAE28031055
:10111000DF0DE00DE10DE20D5E08DF0203189A28F5
:101120000130E00203189A28E10203189A28E2022B
:10113000031CBD285D08E0020318A5280130E10268
:101140000318A528E202031CBD285C088038E102D0
:101150000318AE280130E202031CBD28FA0A031D61
:10116000BD28F90A031DBD28F80A031DBD28F70A8A
:101170000319C728F80CF90CFA0C5808E3005C08AE
:10118000E306E31FC528F817CB28F813CB28F7018F
:10119000F801F901FA0183128A150A16B029803084
:1011A000831CD5288316D80683128316DD01DE0141
:1011B0005408DC005808DC0653080319C329DB0077
:1011C000F70057080319CC29DB0203196829031C0F
:1011D00026295808E100E1175908E0005A08DF0005
:1011E000DE010310E10CE00CDF0CDE0CDB0BF02861
:1011F000DC1FFD285D14E0295D105B105D16D63004
:1012000084008313F5295D12DC1B10295B1C1B294C
:10121000E10CE00CDF0CDE0CF70A0319DB291B29BB
:10122000E11B1E290310DE0DDF0DE00DE10DF703BC
:101230000319DB2910295D1788295D135408DC0088
:10124000DC1F2429E117D429E113D4295708DB0036
:10125000F7005308DB025408E100E1175508E000ED
:101260005608DF00DE010310E10CE00CDF0CDE0CA1
:10127000DB0B3229DC1F3F29DD14E029DD105B1078
:10128000DD16DA3084008313F529DD12DC1B5229C8
:101290005B1C5D29E10CE00CDF0CDE0CF70A031986
:1012A000DB295D29E11B60290310DE0DDF0DE00D58
:1012B000E10DF7030319DB295229DD178829DD1316
:1012C0005808DC00DC1F6629E117D429E113D42972
:1012D0005808E100E1175908E0005A08DF00DC1F58
:1012E0007529E1135D15E0295D11DE015B10D63033
:1012F00084008313F529DC1B9E295408DC005B1C49
:101300008829E10CE00CDF0CDE0CF70A0319DB295D
:10131000DE1F9929DF0A031D9929E00A031D992977
:10132000E10A031D9929E10CE00CDF0CF70A03190F
:10133000DB295D1B1D29DD1B5F29BD298030E106EE
:10134000E11FA629E0295808DC00B3295408DC0075
:10135000E108031DB329E008031DB329DF08031DBD
:10136000B329F701D429E11BBD290310DE0DDF0DE0
:10137000E00DE10DF70BB329DB29DC1FC129E117D3
:10138000D429E113D4295708F7005808E100590877
:10139000E0005A08DF00D4295308F7005408E100A0
:1013A0005508E0005608DF006108F8006008F90001
:1013B0005F08FA00132AF701F801F901FA01132A6C
:1013C000DE01DF09E009E109DE09DE0A031DEE297D
:1013D000DF0A031DEE29E00A0319E10A5D18FC2863
:1013E000DD183E295D197429A3290008DF07031CB5
:1013F000FF29E00A031DFF29E10A03195B14840396
:101400000008E007031C072AE10A03195B148403A0
:101410000008801F803AE10703185B145D1A032956
:10142000DD1A45297B2983128A150A16C4298316D9
:1014300055105418551486168312861A3F2A1430F4
:101440000317EA008A1103130D218A1583168616E5
:101450008312861A3F2A8A11D3278A1501308316F0
:10146000D5065108023C031D392A5208033C0319D2
:10147000551486168312861A3F2A8316392A00309D
:10148000831655180130F80083128A150A16EF29C1
:1014900083165708023A83120319552A013A031991
:1014A000602A073A03196B2A762AC030831656073A
:1014B000FF3ED800D9008A1183126B218A15802A39
:1014C000943083165607FF3ED800D9008A11831244
:1014D0006B218A15802AD43083165607FF3ED80028
:1014E000D9008A1183126B218A15802A80308316D5
:1014F0005607FF3ED800D9008A1183126B218A1546
:1015000008000B088316D60083128B13831603176B
:101510008C170C14000000000313D61F922A8312AC
:101520008B178316831203170C087F390319F72AC8
:1015300083160313D600831203170D0883160313B3
:10154000D700831203170F0883160313D800560819
:10155000DD008A118312E6278A1583165708831245
:1015600003178D00831603135808831203178F0087
:1015700003130B088316D90083128B1383160317EA
:101580008C170C14000000000313D91FCA2A831201
:101590008B178316831203170C0D0E0D7F39031959
:1015A000F72A83160313D600831203170D08831638
:1015B0000313D700831203170F0883160313D800F1
:1015C0005608DD008A118312E6278A15831657080C
:1015D000831203178D008316031358088312031711
:1015E0008F008D0A03198F0A0313812A031703132F
:1015F00008000B088316D40083128B13831603177D
:101600008C170C14000000000313D41F0A2B831244
:101610008B1783160318452B831203170C087F3989
:1016200083160313D400831203170D0883160313C4
:10163000D500831203170F0883160313D60054082E
:10164000DD008A118312E6278A1583165508831256
:1016500003178D00831603135608831203178F0098
:1016600003130B088316D70083128B1383160317FB
:101670008C170C14000000000313D71F422B831299
:101680008B178316D30B452B752B831203170C0D69
:101690000E0D7F3983160313D400831203170D0830
:1016A00083160313D500831203170F088316031341
:1016B000D6005408DD008A118312E6278A158316A6
:1016C0005508831203178D008316031356088312DF
:1016D00003178F008D0A03198F0A03108316031353
:1016E000D30B732B752B8312F92A83120800780809
:1016F0008316560803179000643091008A118312F4
:101700000313CD238A1577088316D6007808303066
:10171000031D912BD71C9C2BD7199C2B571A2030BB
:10172000942BD71157125714F8077808DD008A1147
:101730008312E6278A1583165608031790000A308D
:1017400091008A1183120313CD238A15770883161B
:10175000D60078083030031DB32BD719BB2B571C8C
:10176000BB2B571A2030F8077808DD008A11831246
:10177000E6278A1583163030D6075608DD008A1111
:101780008312E6278A15080020308316581E303051
:10179000D9005708F700D71FD52BF709F70A7708A4
:1017A000D7002D30D900D8175814570803179000C8
:1017B000643091008A1183120313CD238A157708B0
:1017C0008316D70030307807DA00570803179000E7
:1017D0000A3091008A1183120313CD238A15303009
:1017E00077078316DC0030307807DB005908F700F4
:1017F00030305A020319002CD814D81B5815142C59
:101800005908DA002030D90030305B0203190C2C63
:101810005814D81BD814142C031D5814031D142C51
:101820005A08DB002030DA0058191B2CD818222C5B
:101830005818292C302C5908DD008A118312E6270C
:101840008A1583165A08DD008A118312E6278A1545
:1018500083165B08DD008A118312E6278A1583163A
:101860005C08DD008A118312E6278A1508008316BA
:10187000510B492C1530D6000130D7008312482275
:10188000CB3003178D0000308F0003138122732C9F
:1018900083165108023C031D5E2C520B5E2C1A303D
:1018A000D6000130D70083124822D03003178D00B4
:1018B00000308F0003138122732C83165108023CE1
:1018C000031D742C5208023C031D742C1A30D600E0
:1018D0000130D70083124822D63003178D00003024
:1018E0008F000313812283160130D600D7008312A4
:1018F0004822DB3003178D0000308F0003100730C3
:1019000083160313D3008312F9222B088316D60003
:101910001B30D7008312772301308316D6000230A4
:10192000D70083124822E03003178D0000308F006B
:101930000310083083160313D3008312F9222D08F5
:101940008316D6001B30D700831277230C30831602
:10195000D6000130D70083124822E63003178D00ED
:1019600000308F000310043083160313D30083125A
:10197000F92232088316D6001B30D7008312772352
:101980000C308316D6000230D70083124822EA308A
:1019900003178D0000308F000310043083160313EB
:1019A000D3008312F9220830840034088316D4004F
:1019B000831233088316D300DB010408DA005B10BE
:1019C000831B5B14540EF038D600D607E23ED700D6
:1019D000323ED90054080F39D707D707D907E93E57
:1019E000D800D807D807530E0F39D807D907D80D14
:1019F000D90DD909D90D53080F39D907D60D07309C
:101A0000D5000A30D907D803031C022DD807D70305
:101A1000031C062DD707D603031C0A2DD607D503B2
:101A2000031C0E2DD5308400831307305A055A133A
:101A30008407D930040203195A170008F700031D60
:101A4000292D5A1B292D5A1A3F2DDA19292D2030FC
:101A50002C2DDA155A123030F707D4010408D300C0
:101A60005410831B54147708DD008A118312E62773
:101A70008A15831653088400831354188317840A25
:101A80005A1F192D1530D6000230D7008312482274
:101A90000030211901308316D30000308312A119C0
:101AA00001308316D40000308312211A01308316CE
:101AB000D50000308312A11A01308316D6005130B0
:101AC000DD008A118312E6278A153A308316DD007D
:101AD0008A118312E6278A1583165308D700183017
:101AE000D8008312C42320308316DD008A118312AC
:101AF000E6278A1544308316DD008A118312E62713
:101B00008A153A308316DD008A118312E6278A157A
:101B100083165408D7001830D8008312C42320300D
:101B20008316DD008A118312E6278A154230831658
:101B3000DD008A118312E6278A153A308316DD000C
:101B40008A118312E6278A1583165508D7001830A4
:101B5000D8008312C42320308316DD008A1183123B
:101B6000E6278A1550308316DD008A118312E62796
:101B70008A153A308316DD008A118312E6278A150A
:101B800083165608D7001830D8008312C4238A154C
:101B90000A16F72983165308D4000615831206196E
:101BA000612E14300317EA008A1103130D218A15E0
:101BB0008316061583120619612E8A11D3278A15FA
:101BC0008316D40A5408023C03185B2E0230D4005A
:101BD000520BF42D500BF42D4F0BF42D8510831266
:101BE000851421155A2E8316520B022E500B022EED
:101BF0004F08023C031D022E85108312851021110F
:101C00005A2E8316520B102E5008023C031D102E24
:101C10004F0B102E051183120515A1155A2E831690
:101C2000520B202E5008023C031D202E4F08023C70
:101C3000031D202E051183120511A1115A2E8316A2
:101C4000520B2E2E5008033C031D2E2E4F0B2E2E12
:101C500085118312851521165A2E8316520B3E2E9E
:101C60005008033C031D3E2E4F08023C031D3E2E30
:101C700085118312851121125A2E8316520B4C2E78
:101C80005008043C031D4C2E4F0B4C2E05128312A2
:101C90000516A1165A2E8316520B5B2E5008043CD3
:101CA000031D5B2E4F08023C031D5B2E05128312A1
:101CB0000512A1128316061583120619612E8316CA
:101CC0005B2E83165408F80083128A150A16FF2922
:101CD00083165308D40006178312061BCD2E14302A
:101CE0000317EA008A1103130D218A1583160617BC
:101CF0008312061BCD2E8A11D3278A158316D40B87
:101D0000832E0130D4005308023C031D9F2E520B3A
:101D10009F2E0130D000851083128510211183166B
:101D2000051183120511A1118316851183128511E6
:101D300021128316051283120512A112831653086D
:101D4000023C031DBB2E5208023C031DBB2E851016
:101D50008312851021118316051183120511A1111B
:101D600083168511831285112112831605128312A1
:101D70000512A11283165308023C031DC72E5208F8
:101D8000033C031DC72E0512831205128316061786
:101D90008312061BCD2E8316C72E83165408F80017
:101DA00083128A150A16082A01308316D600D70036
:101DB000831248228A3003178D0000308F000313EE
:101DC000812201308316D6000230D70083124822C8
:101DD0008B3003178D0000308F00031381221530E4
:101DE0008316D6000130D700831248228C300317A7
:101DF0008D0000308F000313812215308316D6002A
:101E00000230D700831248228D3003178D00003036
:101E10008F000313812207308316D6000130D700CC
:101E2000831248228E3003178D0000308F00031379
:101E3000812207308316D6000230D7008312482251
:101E40008F3003178D0000308F00031381221B3069
:101E50008316D6000130D700831248229030031732
:101E60008D0000308F00031381221B308316D600B3
:101E70000230D70083124822913003178D000030C2
:101E80008F00031381220C308316D6000130D70057
:101E900083124822923003178D0000308F00031305
:101EA00081220C308316D6000230D70083124822DC
:101EB000933003178D0000308F00031381222030F0
:101EC0008316D6000130D7008312482294300317BE
:101ED0008D0000308F000313812220308316D6003E
:101EE0000230D70083124822953003178D0000304E
:101EF0008F0003138122080083165308D400861430
:101F0000831286189B2F14300317EA008A110313DB
:101F10000D218A1583168614831286189B2FD426CA
:101F20008316D40B952F0130D400861483128618A3
:101F30009B2F8316952F83165408F80083128A1559
:101F40000A16112A83165308D4008615831286199F
:101F5000C42F14300317EA008A1103130D218A15C8
:101F60008316861583128619C42FD4268316D40AA5
:101F70005408023C0318BE2F0230D4008615831289
:101F80008619C42F8316BE2F83165408F8008312B7
:101F90008A150A161A2A83165308D40006148312C7
:101FA0000618EA2F14300317EA008A1103130D21D3
:101FB0008A158316061483120618EA2FD426831670
:101FC000D40BE42F0130D400061483120618EA2F34
:101FD0008316E42F83165408F80083128A150A1614
:021FE000232AB2
:1020000083165308D40006168312061A2E2814309D
:102010000317EA000A1203130D210A168316061687
:102020008312061A2E280A128A15D4260A168A1135
:102030008316D40A5408043C031820280430D40022
:10204000510B28285208033C031D28280330D400D4
:1020500006168312061A2E2883162828831654087B
:10206000F80083128A150A162C2A83165508D60002
:10207000530B55285008013A831203194628033A96
:1020800003194B28013A03195028542801308316AC
:10209000D6008312542802308316D60083125428A7
:1020A00003308316D600831283165608F800831275
:1020B0008A150A16392A83165108023C031D402945
:1020C000550B4029D4080319D028530BD0285408A5
:1020D000013A831203197328033A03198A28013A33
:1020E0000319A128B82807308316D6000130D7007D
:1020F0000A128A15831248220A168A11963003178B
:102100008D0000308F000A128A15031381220A16EF
:102110008A11CE2807308316D6000230D7000A1263
:102120008A15831248220A168A11973003178D00E8
:1021300000308F000A128A15031381220A168A11B1
:10214000CE281B308316D6000130D7000A128A151C
:10215000831248220A168A11983003178D00003026
:102160008F000A128A15031381220A168A11CE28BB
:102170001B308316D6000230D7000A128A1583124C
:1021800048220A168A11993003178D0000308F00FB
:102190000A128A15031381220A168A113E29831610
:1021A000D40803193F295308023C031D3F29540852
:1021B000013A83120319E328033A0319FA28013A72
:1021C0000319112928290C308316D6000130D700B5
:1021D0000A128A15831248220A168A119A300317A6
:1021E0008D0000308F000A128A15031381220A160F
:1021F0008A113E290C308316D6000230D7000A120D
:102200008A15831248220A168A119B3003178D0003
:1022100000308F000A128A15031381220A168A11D0
:102220003E2920308316D6000130D7000A128A15C5
:10223000831248220A168A119C3003178D00003041
:102240008F000A128A15031381220A168A113E2969
:1022500020308316D6000230D7000A128A15831266
:1022600048220A168A119D3003178D0000308F0016
:102270000A128A15031381220A168A118316B729B6
:102280005108023C031D48295508023C0319B7298F
:102290005108023C031D50295508033C0319B72976
:1022A0005408013A831203195C29033A031972296D
:1022B000013A03198929A02901308316D600D700D5
:1022C0000A128A15831248220A168A119E300317B1
:1022D0008D0000308F000A128A15031381220A161E
:1022E0008A11B62901308316D6000230D7000A12AF
:1022F0008A15831248220A168A119F3003178D000F
:1023000000308F000A128A15031381220A168A11DF
:10231000B62915308316D6000130D7000A128A1567
:10232000831248220A168A11A03003178D0000304C
:102330008F000A128A15031381220A168A11B62900
:1023400015308316D6000230D7000A128A15831280
:1023500048220A168A11A13003178D0000308F0021
:102360000A128A15031381220A168A118316831210
:102370008A150A16462A02308316D6000130D70085
:102380000A128A15831248220A168A11A2300317EC
:102390008D0000308F000A128A15031381220A165D
:1023A0008A1102308316D600D7000A128A158312CA
:1023B00048220A168A11A43003178D0000308F00BE
:1023C0000A128A15031381220A168A1116308316FF
:1023D000D6000130D7000A128A15831248220A1645
:1023E0008A11A73003178D0000308F000A128A155A
:1023F000031381220A168A1108008316111411187A
:10240000FF29D030DC000A128312DF210A1683165E
:10241000DC010A128312DF210A1683169114911827
:102420000F2AD130DC000A128312DF210A16013094
:10243000F7000A126F270A167808F5000130F70036
:102440000A126F270A167808FB000130F7000A12FB
:102450006F270A167808FD000130F7000A126F276F
:102460000A1678088316C8000130F7000A12831292
:102470006F270A1678088316C2000130F7000A1287
:1024800083126F270A1678088316C400F7010A1210
:1024900083126F270A1678088316C60011151119C2
:1024A0004F2A83120800F701F80183165808031019
:1024B0005918F707F70CF80CD918F707F70CF80CB0
:1024C0005919F707F70CF80CD919F707F70CF80C9E
:1024D000591AF707F70CF80CD91AF707F70CF80C8C
:1024E000591BF707F70CF80CD91BF707F70CF80C7A
:1024F0008312080080080319982A8316D70104085C
:10250000D6005710831B57140008DD000A128312EF
:10251000E6270A1683165608840083135718831774
:10252000840A031D962A8312850A831683127A2A47
:10253000080075087039F700770EF6000F30F605C1
:10254000F5057B087039F700770EFC000F30FC05AD
:10255000FB057D083039F700770EFE000F30FE05D1
:10256000FD05831642083039F700770EC3000F309F
:10257000C305C20544081039F700770EC5000F30B7
:10258000C505C4054608F039F700770EC7000F30BF
:10259000C705C605303075078312E800303076076E
:1025A000E70030307B07E50030307C07E400303056
:1025B0007D07E20030307E07E100303083164607A9
:1025C000F30030304707F200303044078312EE004A
:1025D0003030831645078312ED00303083164207F2
:1025E0008312EB003030831643078312EA00013078
:1025F0008316D600D7000A128A15831248220A16BB
:102600008A115930840083137A2201308316D60050
:102610000230D7000A128A15831248220A168A113C
:10262000013083164802F93E0318752B073E8312CA
:10263000842B6C3003178D0000308F000A128A152E
:10264000031381220A168A118316752B7030031723
:102650008D0000308F000A128A15031381220A169A
:102660008A118316752B743003178D0000308F008C
:102670000A128A15031381220A168A118316752BF2
:10268000783003178D0000308F000A128A1503136B
:1026900081220A168A118316752B7C3003178D0050
:1026A00000308F000A128A15031381220A168A113C
:1026B0008316752B803003178D0000308F000A12AF
:1026C0008A15031381220A168A118316752B84300A
:1026D00003178D0000308F000A128A150313812220
:1026E0000A168A118316752B83160930D60002301C
:1026F000D7000A128A15831248220A168A116A30F4
:10270000840083137A2208000A148A140A118207AB
:10271000192B262B332B402B4D2B5A2B672B831633
:10272000530BA62C5408013A831203199B2B033A2E
:1027300003199D2BA42CBB21A42C02308316D60098
:102740000130D7000A128A15831248220A168A110C
:10275000AA3003178D0000308F000A128A15031368
:1027600081220A168A1102308316D600D7000A1277
:102770008A15831248220A168A11AD3003178D007C
:1027800000308F000A128A15031381220A168A115B
:1027900016308316D6000130D7000A128A1583122C
:1027A00048220A168A11AF3003178D0000308F00BF
:1027B0000A128A15031381220A168A11163083160B
:1027C000D6000230D7000A128A15831248220A1650
:1027D0008A11B13003178D0000308F000A128A155C
:1027E000031381220A168A1108308316D60001309D
:1027F000D7000A128A15831248220A168A11B430A9
:1028000003178D0000308F000A128A1503138122EE
:102810000A168A1108308316D6000230D7000A1231
:102820008A15831248220A168A11B63003178D00C2
:1028300000308F000A128A15031381220A168A11AA
:102840001C308316D6000130D7000A128A15831275
:1028500048220A168A11B83003178D0000308F0005
:102860000A128A15031381220A168A111C30831654
:10287000D6000230D7000A128A15831248220A169F
:102880008A11BA3003178D0000308F000A128A15A2
:10289000031381220A168A110D308316D6000130E7
:1028A000D7000A128A15831248220A168A11BC30F0
:1028B00003178D0000308F000A128A15031381223E
:1028C0000A168A110D308316D6000230D7000A127C
:1028D0008A15831248220A168A11BE3003178D000A
:1028E00000308F000A128A15031381220A168A11FA
:1028F00021308316D6000130D7000A128A158312C0
:1029000048220A168A11C03003178D0000308F004C
:102910000A128A15031381220A168A11213083169E
:10292000D6000230D7000A128A15831248220A16EE
:102930008A11C23003178D0000308F000A128A15E9
:10294000031381220A168A11FF2D83165308023CB5
:10295000031DE32C5408013A83120319B32C033AE4
:102960000319B52CE12CBB21E12C09308316D600CC
:102970000230D7000A128A15831248220A168A11D9
:10298000C43003178D0000308F000A128A1503131C
:1029900081220A168A111B308316D6000130D70017
:1029A0000A128A15831248220A168A11C7300317A1
:1029B0008D0000308F000A128A15031381220A1637
:1029C0008A11FF2D83165308033C031D002E540863
:1029D000013A83120319F02C033A0319F22CFF2D4C
:1029E000BB21FF2DFD217B080F398316D5007B0EFF
:1029F000F7000F30F7057708D700D8000A30D90064
:102A0000831253227808831655074902031D232D8C
:102A10007D080F39D5007D0EF7000F30F7057708D8
:102A2000D700D8000A30D9008312532278088316C1
:102A300055074A02031D232DF508031D232D0512FA
:102A40008312051683167B080F39D5007B0EF7001D
:102A50000F30F7057708D700D8000A30D900831265
:102A600053227808831655074B02031D522D7D080B
:102A70000F39D5007D0EF7000F30F7057708D70026
:102A8000D8000A30D90083125322780883165507DC
:102A90004C02031D522DF508031D522D0512831201
:102AA0000512831683129922831649080317900092
:102AB0000A3091000A1283120313CD230A16303014
:102AC00077078316AC004908031790000A3091007D
:102AD0000A1283120313CD230A16303078078316A7
:102AE000AB004A08031790000A3091000A128312C3
:102AF0000313CD230A16303077078316A9004A083E
:102B0000031790000A3091000A1283120313CD2399
:102B10000A16303078078316A8001530D600013029
:102B2000D7000A128A15831248220A168A11A03089
:102B3000840083137A2226308316D6000130D70012
:102B40000A128A15831248220A168A1183164B0824
:102B5000031790000A3091000A1283120313CD2349
:102B60000A16303077078316BD004B080317900014
:102B70000A3091000A1283120313CD230A16303053
:102B800078078316BC004C08031790000A309100A8
:102B90000A1283120313CD230A16303077078316E7
:102BA000BA004C08031790000A3091000A128312F1
:102BB0000313CD230A16303078078316B900153079
:102BC000D6000230D7000A128A15831248220A164C
:102BD0008A11B130840083137A2226308316D600FE
:102BE0000230D7000A128A15831248220A168A1167
:102BF00032300317EA000A1203130D210A16831656
:102C000083128A150A164F2A831686148312861C8D
:102C10000E2E831686158312861921138316061429
:102C200083120618732E8316D30A4D0B182E1C2EF2
:102C30004D08063C031D202E5308173C031CD301EE
:102C40004D08023C0319282E4D08073C031D2C2E6D
:102C500053083B3C031CD3014D08033C031D362E97
:102C600053081F3C0318362E0130D3004D08043C96
:102C7000031D402E53080C3C0318402E0130D30096
:102C80004D08053C031D482E5308633C031CD3012B
:102C90005408D6005508D7000A128A158312482214
:102CA0000A168A1183165308D6000130D7000A127B
:102CB0008A15831277230A168A1183164D08063C5B
:102CC0000319662E4D08073C031D6A2E8312FD2151
:102CD00099228316C83083120317EA000A120313DD
:102CE0000D210A160E2E83165408D6005508D7005B
:102CF0000A128A15831248220A168A11883003178D
:102D00008D0000308F000A128A15031381220A16E3
:102D10008A118316CE018614831286189D2E211BDC
:102D20009D2E83164D08063C031D982E83129D2E62
:102D30004D08073C031DC52E83128316861583128A
:102D40008619AE2E211BAE2E83164D08063C0319A4
:102D5000C52E4D08073C0319C52E83128316061491
:102D600083120618B52E8316C52E83164E08043C12
:102D7000031CC52ECE0A643083120317EA000A1220
:102D800003130D210A1683168B2E5408D6005508FE
:102D9000D7000A128A15831248220A168A1183164E
:102DA0005308D6000130D7000A128A158312772300
:102DB0000A168A118316CE01861483128618EE2E07
:102DC000211BEE2E83164D08063C031DE92E8312AF
:102DD000EE2E4D08073C031D162F83128316861511
:102DE00083128619FF2E211BFF2E83164D08063CE9
:102DF0000319162F4D08073C0319162F831283164B
:102E0000061483120618062F8316162F83164E08F3
:102E1000043C031C162FCE0A643083120317EA0009
:102E20000A1203130D210A168316DC2E4D08063CE8
:102E300003192D2F4D08073C03192D2F86148312DB
:102E4000861C242F83162D2F211F282F83162D2F0C
:102E5000211783165308F800452F4D08063C031927
:102E6000352F4D08073C031D442F86158312861904
:102E7000412F211B412F211783165308F800452F9E
:102E80008312FD2199228316052E831208008316D2
:102E900011141118492FD030DC000A128312DF21DF
:102EA0000A1683165308DC000A128312DF210A1661
:102EB00083165408DC000A128312DF210A168316D7
:0A2EC00011151119612F831208008B
:1030000003081F398300FF30A000A0152008831695
:103010008700831220162008831687003130930022
:1030200028308312940083169417141308308312E7
:10303000A300A40183160317871503139900023018
:103040009A00A6309800903083129800B401B30122
:103050002111A1112112A112D801D7018316C90192
:10306000CA01CB01CC010130CF00D000D100D20089
:103070008312A113831603170908C03989000313AB
:103080001F129F12003003178800831287018801E6
:10309000890183130313A501A6015530B7005A30E7
:1030A000B8004930B900BA01B6013730B500513027
:1030B000BD00BE00BF003130C0003230C10033302F
:1030C000C2003430C3003530C4003630C500C601FC
:1030D000BC013D30BB003130C9003930CA0032304C
:1030E000CB002E30CC003130CD003630CE00383021
:1030F000CF002E30D0003130D1003330D200373005
:10310000D3002E30D4003130D500D601C80149306B
:10311000C7005430D9004930DA004D30DB0045306B
:10312000DC003A30DD002030DE00DF00E000E100AE
:10313000E2003A30E3002030E400E5003A30E600F7
:103140002030E700E800E901EA00EB002F30EC0056
:103150002030ED00EE002F30EF003230F000303044
:10316000F1002030F200F300F40150308316A0008B
:103170005F30A1004F30A2004E30A3002030A400E9
:10318000A5003A30A6002030A7003030A800A900E2
:103190003A30AA003030AB00AC003A30AD003030ED
:1031A000AE00AF00B0015030B1005F30B2004F3020
:1031B000B3004630B400B5002030B6003A30B70056
:1031C0002030B8003030B900BA003A30BB0030309F
:1031D000BC00BD003A30BE003030BF00C000C101AD
:1031E0003F30860001309500811383121F139F1713
:1031F00083169F1783121F14831603170908C039FB
:10320000890003131F129F1201300317880000303A
:10321000F800831203131F08C33978049F0032306B
:103220000317EA000A128A1103130D210A168A15E0
:103230004E308316D3000A128A1183127F290A1690
:103240008A150A128A11042A0A168A1583168C1600
:10325000C03083128B040A128A11D62A0A168A15E4
:103260000A128A11552C0A168A15A1100A128A11FF
:10327000FF2D0A168A150A128A11222E0A168A159D
:10328000F808031966290A128A1142260A168A15B5
:103290007808AD000A128A1142260A168A157808A3
:1032A000AE000A128A1142260A168A157808AB0067
:1032B0000A128A1142260A168A157808AC000A12E8
:1032C0008A1142260A168A157808AF009F149F18A3
:1032D00067291E08F90083161E08F8007908831272
:1032E000B1007808B00031088316D400831230088A
:1032F0008316D3000A128A118312B22E0A168A1577
:103300007A088316D6007908D5007808D4007708A3
:10331000D300DA01D9014830D8008530D7000A122D
:103320008A118312D32E0A168A157A088316D600BC
:103330007908D5007808D4007708D3005608DA0059
:103340005508D9005408D8005308D700DE01C03012
:10335000DD007F30DC008830DB000A128312002899
:103360000A1683148316D601D5014830D40085305F
:10337000D3007A08DA007908D9007808D8007708ED
:10338000D7000A128312CF280A167A088316D600AD
:103390007908D5007808D4007708D3000A128A117A
:1033A00083124C2F0A168A157808B2001030831643
:1033B000D300D501B430D4000A128A1183127F2FB2
:1033C0000A168A157908B4007808B3000030A11BEA
:1033D00001308316D300D4000A128312172A0A166A
:1033E000A1137818A117A11BF9290A12372C0A1664
:1033F000502A83165108D3000A128312CA2D0A16C6
:1034000078088316D1005108D3000A128312682E5F
:103410000A1678088316D1004F08D3000A128312C7
:103420007C2F0A1678088316CF004F08D3000A12A3
:103430008312A22F0A1678088316CF005008D300F3
:103440000A128312CB2F0A1678088316D000500870
:10345000D3008A11831200288A1578088316D000B9
:103460005108D3004F08D4005208D5008A118312A6
:1034700035288A1578088316D2004F08D3005008E3
:10348000D4005208D5008A1183125B288A1583164E
:103490005208D3005108D4008A1183128F2B8A1549
:1034A00083165108023C031D952A5208023C031D55
:1034B000952A83123208363C031C642A8316851130
:1034C000831285152116692A8316851183128511A9
:1034D00021122B08233C0318782A83160512831225
:1034E0000516A11683168510831285142115822ACC
:1034F0008316051283120512A112831685108312FA
:1035000085102111B408031D8F2A33081D3C031CAC
:103510008F2A8316051183120515A115942A831687
:10352000051183120511A11183165108023C031DD8
:10353000A42D5208033C031DA42D86148312861C5F
:10354000A72A831686158312861DA72A21138316A0
:103550008614831286184F2D211B4F2D21177C08AE
:103560008316D8000A30D9008A11831253228A1593
:103570007808FB077E088316D8000A30D9008A1124
:10358000831253228A157808FD0783164308D80052
:103590000A30D9008A11831253228A1578088316BB
:1035A000C2074508D8000A30D9008A118312532275
:1035B0008A1578088316C4074708D8000A30D9004E
:1035C0008A11831253228A1578088316C6070130A0
:1035D000CD007D08D3000930D4000130D5008A1118
:1035E000831204268A157808FD0002308316CD0068
:1035F0007B08D3000C30D4000130D5008A1183122F
:1036000004268A157808FB00831686148312861C0C
:103610000A2B21138316061483120618812B831696
:10362000C80A4808073C0318172B0130C8000630A9
:10363000D6000230D7000A12831248220A1601303F
:1036400083164802F93E0318762B073E8312A72DF6
:10365000EF3003178D0000308F000A120313812210
:103660000A168316762BF13003178D0000308F0079
:103670000A12031381220A168316762BF3300317DE
:103680008D0000308F000A12031381220A16831660
:10369000762BF53003178D0000308F000A120313CC
:1036A00081220A168316762BF73003178D0000301F
:1036B0008F000A12031381220A168316762BF93023
:1036C00003178D0000308F000A12031381220A169F
:1036D0008316762BFB3003178D0000308F000A1203
:1036E000031381220A168316762B8316C8308312A1
:1036F0000317EA000A128A1103130D210A168A150C
:103700000A2B06308316D6000230D7000A12831225
:1037100048220A16FD3003178D0000308F000A1270
:10372000031381220A168316CE018614831286188B
:103730009B2B211FB52B831606148312061CB52B59
:1037400083164E08043C0318A72B8312B52BCE0A10
:10375000C83083120317EA000A128A1103130D21DD
:103760000A168A158316952B831206308316D60007
:103770000230D7000A12831248220A16013083163B
:103780004802F93E0318152C073E8312B22DFF3074
:1037900003178D0000308F000A12031381220A16CE
:1037A0008316152C013003178D0001308F000A128B
:1037B000031381220A168316152C033003178D007C
:1037C00001308F000A12031381220A168316152C6A
:1037D000053003178D0001308F000A120313812278
:1037E0000A168316152C073003178D0001308F0041
:1037F0000A12031381220A168316152C09300317A7
:103800008D0001308F000A12031381220A168316DD
:10381000152C0B3003178D0001308F000A12031393
:1038200081220A168316152C831686148312861895
:103830001D2C211B1D2C2117402C8316CE01061593
:1038400083120619252C211F3F2C83160614831280
:10385000061C3F2C83164E08043C0318312C83129F
:103860003F2CCE0AC83083120317EA000A128A11CD
:1038700003130D210A168A1583161F2C8312042B9D
:1038800003308316CD004208D3000930D400023043
:10389000D5008A11831204268A1578088316C2007F
:1038A0000430CD004408D3000C30D4000230D500E1
:1038B0008A11831204268A1578088316C4000530FD
:1038C000CD004608D3001130D4000230D5008A1153
:1038D000831204268A1578088316C6007B0803170E
:1038E00090000A3091000A128A1183120313CD232B
:1038F0000A168A15780E8316D300F030D3057B089C
:10390000031790000A3091000A128A1183120313E0
:10391000CD230A168A15770883165307FB007D0806
:10392000031790000A3091000A128A1183120313C0
:10393000CD230A168A15780E8316D300F030D305EE
:103940007D08031790000A3091000A128A11831231
:103950000313CD230A168A15770883165307FD0033
:103960004208031790000A3091000A128A1183124C
:103970000313CD230A168A15780E8316D300F03070
:10398000D3054208031790000A3091000A128A11E9
:1039900083120313CD230A168A157708831653075B
:1039A000C2004408031790000A3091000A128A11DD
:1039B00083120313CD230A168A15780E8316D300BB
:1039C000F030D3054408031790000A3091000A1222
:1039D0008A1183120313CD230A168A1577088316DA
:1039E0005307C4004608031790000A3091000A12DA
:1039F0008A1183120313CD230A168A15780E8316B3
:103A0000D300F030D3054608031790000A30910028
:103A10000A128A1183120313CD230A168A15770816
:103A200083165307C6000130D3007B08D4008A11E7
:103A3000831247278A1502308316D3007D08D400ED
:103A40008A11831247278A1503308316D30048084A
:103A5000D4008A11831247278A1504308316D300B5
:103A60004208D4008A11831247278A15053083162D
:103A7000D3004408D4008A11831247278A150630E0
:103A80008316D3004608D4008A11831247278A156B
:103A90008316D301D4018A11831247278A1583160E
:103AA0008615831286199E2D211B9E2D2117063007
:103AB0008316CD004A08D3001D30D4000130D50054
:103AC0008A11831204268A1578088316CA000730E3
:103AD000CD004908D3002030D4000130D5008A1130
:103AE000831204268A1578088316C9000630CD0093
:103AF0004C08D3001D30D4000230D5008A11831247
:103B000004268A1578088316CC000730CD004B08B0
:103B1000D3002030D4000230D5008A11831204264D
:103B20008A1578088316CB00C83083120317EA0081
:103B30000A128A1103130D210A168A158316061418
:103B400083120618A32D83168312302963000A14EA
:103B50008A100A158207282B332B3E2B492B542B16
:103B60005F2B6A2B0A148A100A158207C72BD22BE7
:0A3B7000DD2BE82BF32BFE2B092CB4
:04400E00E22CFF3F62
:00000001FF
;PIC16F887
;CRC=4FE5  CREATED="10-Jun-23 22:28"
